:100000000C9462000C948A000C948A000C948A0070
:100010000C948A000C948A000C948A000C948A0038
:100020000C948A000C948A000C948A000C948A0028
:100030000C948A000C948A000C948A000C948A0018
:100040000C945B040C948A000C94C9040C94A304D3
:100050000C948A000C948A000C948A000C948A00F8
:100060000C948A000C948A000000000023002600F3
:10007000290000000008000201000003040700003E
:1000800000000000000000000000250028002B00F8
:1000900000000000240027002A00040404040404D3
:1000A0000404020202020202030303030303010227
:1000B00004081020408001020408102001020408F6
:1000C0001020F60411241FBECFEFD8E0DEBFCDBF55
:1000D00011E0A0E0B1E0E2EAF1E102C005900D928A
:1000E000A633B107D9F721E0A6E3B1E001C01D9224
:1000F000AA3EB207E1F710E0C2E6D0E004C02197C3
:10010000FE010E948D06C136D107C9F70E94250560
:100110000C94CF080C940000CF93DF93E6EBF0E053
:100120009491E2EAF0E024912223D1F030E0220F12
:10013000331FF901E057FF4FA591B491F901EA5738
:10014000FF4FC591D49181110EC02FB7F8948C91B7
:10015000E92FE0958E238C939881E923E8832FBFC4
:10016000DF91CF9108958FB7F894EC91E92BEC9340
:100170008FBFF6CFEAE7F0E08491E6EBF0E09491F0
:10018000E2EAF0E0E491EE23C9F0882349F08430FC
:1001900021F1A8F4823049F18330C9F0813009F1AE
:1001A000F0E0EE0FFF1FEA57FF4FA591B4918FB714
:1001B000F894EC9190959E239C938FBF089587307F
:1001C000B9F0883069F78091B0008F7D14C08091BC
:1001D00080008F7780938000E3CF809180008F7DB7
:1001E000F9CF84B58F7784BDDBCF84B58F7DFBCF0E
:1001F0008091B0008F778093B000D2CF789484B58F
:10020000826084BD84B5816084BD85B5826085BD12
:1002100085B5816085BDEEE6F0E0808181608083F8
:10022000E1E8F0E0108280818260808380818160DB
:100230008083E0E8F0E0808181608083E1EBF0E0A2
:10024000808184608083E0EBF0E080818160808346
:10025000EAE7F0E08081846080838081826080832F
:100260008081816080838081806880831092C1005A
:100270000895CF93DF9300D000D0CDB7DEB73FB75E
:10028000F89480913B0190913C01A0913D01B09187
:100290003E0126B5A89B05C02F3F19F00196A11D70
:1002A000B11D3FBFBA2FA92F982F8827820F911D0C
:1002B000A11DB11D9C01AD0162E0220F331F441F3F
:1002C000551F6A95D1F7CA01B9010F900F900F9091
:1002D0000F90DF91CF9108958F929F92AF92BF922E
:1002E000CF92DF92EF92FF92CF93DF9300D000D0B6
:1002F000CDB7DEB74B015C010E9439016B017C0177
:100300000E943901DC01CB018C199D09AE09BF099E
:10031000883E9340A105B10598F321E0821A910827
:10032000A108B10888EEC80E83E0D81EE11CF11CBC
:1003300081149104A104B10419F70F900F900F904C
:100340000F90DF91CF91FF90EF90DF90CF90BF9013
:10035000AF909F908F900895CF92DF92EF92FF928F
:100360000F931F93CF93DF937C016A0110E000E0AD
:100370000C151D0581F0EB01D701ED91FC91019069
:10038000F081E02D6991C7010995892B21F00F5F5C
:100390001F4FBE01EDCFC801DF91CF911F910F918B
:1003A000FF90EF90DF90CF900895FC01538D448D26
:1003B000252F30E0842F90E0821B930B541710F010
:1003C000CF96089501970895FC01918D828D98171D
:1003D00061F0A28DAE0FBF2FB11D5D968C91928DF5
:1003E0009F5F9F73928F90E008958FEF9FEF089526
:1003F000FC01918D828D981731F0828DE80FF11DEF
:10040000858D90E008958FEF9FEF0895FC01818D19
:10041000228D90E0805C9F4F821B91098F739927FA
:1004200008958FE391E00E9406029C0181E0232B56
:1004300009F480E0089580E090E0892B29F00E9483
:10044000110281110C9400000895FC01A48DA80FE5
:10045000B92FB11DA35ABF4F2C91848D90E0019606
:100460008F739927848FA689B7892C93A089B18926
:100470008C91837080648C93938D848D981306C0C7
:100480000288F389E02D80818F7D80830895EF922B
:10049000FF920F931F93CF93DF93EC01F62E81E031
:1004A000888F9B8D8C8D98131AC0E889F98980817B
:1004B00085FF15C09FB7F894EE89FF896083E889AE
:1004C000F98980818370806480839FBF81E090E0A0
:1004D000DF91CF911F910F91FF90EF9008950B8DB9
:1004E00010E00F5F1F4F0F731127E02E8C8D8E11C0
:1004F0000CC00FB607FCFACFE889F989808185FF27
:10050000F5CFCE010E942502F1CFEB8DEC0FFD2F30
:10051000F11DE35AFF4FF0829FB7F8940B8FEA89E1
:10052000FB8980818062D0CFCF93DF93EC01888DEF
:100530008823B9F0AA89BB89E889F9898C9185FD5E
:1005400003C0808186FD0DC00FB607FCF7CF8C91EC
:1005500085FFF2CF808185FFEDCFCE010E9425027D
:10056000E9CFDF91CF910895BC01009791F0FC0194
:1005700001900020E9F73197AF01481B590BE0913A
:100580003F01F09140010280F381E02D8FE391E083
:10059000099490E080E008952F923F924F925F92ED
:1005A0006F927F928F929F92AF92BF92CF92DF9283
:1005B000EF92FF920F931F93CF93DF93CDB7DEB7E8
:1005C000AC970FB6F894DEBF0FBECDBF8B019C0178
:1005D0000AA31BA32CA33DA3F42EAC019B010E94F4
:1005E000CA088823F9F082E191E00E94B4028C01EC
:1005F000C801AC960FB6F894DEBF0FBECDBFDF9139
:10060000CF911F910F91FF90EF90DF90CF90BF900F
:10061000AF909F908F907F906F905F904F903F90A2
:100620002F9008958AA19BA1ACA1BDA1BF778EA3F5
:100630009FA3A8A7B9A72FEF3FEF4FE75FE7BC0144
:10064000CD010E94CA0881110FC02FEF3FEF4FE785
:100650005FE76EA17FA188A599A50E9400071816E3
:100660001CF486E191E0C1CF2FEF3FEF4FE75FE44D
:100670006AA17BA18CA19DA10E94580818161CF4A8
:100680008AE191E0B2CF2FEF3FEF4FE75FEC6AA135
:100690007BA18CA19DA10E94000787FDF1CF20E0E6
:1006A00030E0A9016AA17BA18CA19DA10E94000755
:1006B00087FF2DC0E0913F01F09140010190F08152
:1006C000E02D6DE28FE391E009958AA79BA78AA1AF
:1006D0009BA1ACA1BDA1B0588AA39BA3ACA3BDA311
:1006E00010E060E070E080E09FE3F11699F020E018
:1006F00030E040E251E46EA37FA388A799A76EA1E2
:100700007FA188A599A50E9405071F5FEECF1BA6B4
:100710001AA6E6CF2AA13BA14CA15DA16AA37BA3A7
:100720008CA39DA36AA17BA18CA19DA10E9494068C
:100730006AA37BA38CA39DA36AA17BA18CA19DA18D
:100740000E947707962EA72E8C010E94A6079B0178
:10075000AC016AA17BA18CA19DA10E949306B62E3B
:10076000C72ED82EE92E19A23E0191E2690E711C06
:100770006CA6872C9AE0292E312C412C512C692D06
:100780007A2DC801A20191010E946B06892D9A2D34
:10079000D801922EA32E8A01605DF30162933F017E
:1007A0000A97A105B10558F7CF010E94B4020AA526
:1007B0001BA5080F191FFF2069F0E0913F01F09180
:1007C00040010190F081E02D6EE28FE391E0099508
:1007D000080F191F8AE0482E512C612C712CFA94B5
:1007E000FFEFFF1609F404CF20E030E040E251E4CF
:1007F000BAA2CBA2DCA2EDA26AA17BA18CA19DA191
:100800000E945D08962EA72EB82EE92E6AA37BA320
:100810008CA39DA36AA17BA18CA19DA10E947707B7
:100820006EA37FA388A799A7AEA1BFA1CD01B0E019
:10083000A0E08AA39BA3ACA3BDA319A2CCA4D82CEF
:100840006AA17BA18CA19DA1A30192010E946B06CC
:100850008AA19BA1ACA1BDA12AA33BA34CA35DA3EC
:10086000605DF60162936F010A97A105B10540F73B
:10087000CF010E94B402080F191FAEA1BFA1CD0184
:10088000B0E0A0E08AA39BA3ACA3BDA3BC01CD01B3
:100890000E94A6079B01AC019AA2ABA2BCA2EDA24A
:1008A0006AA17BA18CA19DA10E949306B62EC72EA2
:1008B000D82EE92E94CF1F921FB61F9211242F938A
:1008C0003F938F939F93AF93BF9380913701909104
:1008D0003801A0913901B0913A013091360123E0FD
:1008E000230F2D3750F50196A11DB11D2093360120
:1008F0008093370190933801A0933901B0933A0166
:1009000080913B0190913C01A0913D01B0913E014D
:100910000196A11DB11D80933B0190933C01A093D2
:100920003D01B0933E01BF91AF919F918F913F9157
:100930002F911F901FBE1F90189526E8230F029637
:10094000A11DB11DD3CF1F920F920FB60F9211248C
:100950002F933F934F935F936F937F938F939F93C7
:10096000AF93BF93EF93FF938FE391E00E94250233
:10097000FF91EF91BF91AF919F918F917F916F9177
:100980005F914F913F912F910F900FBE0F901F904D
:1009900018952F932FB72F938F939F93EF93FF93D8
:1009A000E0914F01F09150018081E0915501F0916B
:1009B000560182FD19C09081809158018F5F8F731D
:1009C00020915901821741F0E0915801F0E0E15C7B
:1009D000FE4F958F80935801FF91EF919F918F91DA
:1009E0002F912FBF2F9118958081F6CFEFE3F1E083
:1009F0001382128288EE93E0A0E0B0E084839583B6
:100A0000A683B78384E091E09183808385EC90E0B6
:100A10009587848784EC90E09787868780EC90E0C8
:100A2000918B808B81EC90E0938B828B82EC90E0B9
:100A3000958B848B86EC90E0978B868B118E128E33
:100A4000138E148E1092E901089500D000D00F92F9
:100A5000CDB7DEB70E94FE00E0914F01F09150014A
:100A600082E08083E0914B01F0914C011082E09193
:100A70004D01F0914E018FEC808310925701E0916F
:100A80005301F091540186E08083E0915101F0918F
:100A90005201808180618083E0915101F091520187
:100AA000808188608083E0915101F09152018081C2
:100AB00080688083E0915101F091520180818F7DA7
:100AC0008083E6EB6E2EE0E07E2E02EA10E0F0E995
:100AD0008F2E99249394A12CB12CA0E0EA2EA0E0B3
:100AE000FA2E8091E901882309F0F894F301D4905B
:100AF000F8018491E82FF0E0EE0FFF1FE859FF4F57
:100B00002590349081E00E948C000E94BA0062E13E
:100B100070E080E090E00E946C0180E00E948C0018
:100B200080E293E0D1012C912D2109F47AC0019744
:100B3000C9F78091E9018111CCC08091E4018F77E0
:100B40008093E4012091E6012F772D832093E60125
:100B5000282F30E050E040E029833A834B835C83C8
:100B6000CA01B9010E94A6076093DC017093DD0100
:100B70008093DE019093DF019D81892F90E0B0E0AA
:100B8000A0E089839A83AB83BC83BC01CD010E9422
:100B9000A6076093E0017093E1018093E2019093D6
:100BA000E3018EE191E00E94B4022091E0013091D6
:100BB000E1014091E2015091E30129833A834B83A3
:100BC0005C8342E069817A818B819C810E94CC02A6
:100BD0008AE291E00E94B4028DE291E00E94B402A8
:100BE0008091DC019091DD01A091DE01B091DF01E7
:100BF00089839A83AB83BC8342E0BC01CD010E9410
:100C0000CC028AE291E00E94B402E114F10409F4FA
:100C100068CF0E941102882309F463CF0E9400006C
:100C200060CF80E991E0F10120812D2119F4019735
:100C3000D1F77FCF80E991E0F101A081AD21A1F151
:100C40000197D1F776CFCC2009F473CFF1017081F1
:100C50006A2FAD2DA72329F5662319F1F8E2CF12EB
:100C600030C08417950708F4AC01C501B401641BBA
:100C7000750B8109910922E0959587957795679580
:100C80002A95D1F79B01469449F4E52DF0E0E45212
:100C9000FE4FB0875394B0E080E8482ECA9480E9B4
:100CA00091E0019781F645CF512CB0E030E8432E1A
:100CB00030E020E040E951E080E991E068E2C62EB2
:100CC000C5CFBA01621B730B68177907E0F2B4292C
:100CD000DACF789432CFA1E21A2EAA1BBB1BFD01FA
:100CE0000DC0AA1FBB1FEE1FFF1FA217B307E4070B
:100CF000F50720F0A21BB30BE40BF50B661F771F63
:100D0000881F991F1A9469F7609570958095909542
:100D10009B01AC01BD01CF010895EE0FFF1F0590AF
:100D2000F491E02D09945058BB27AA270E94AB06E6
:100D30000C941E080E94100838F00E94170820F03A
:100D400039F49F3F19F426F40C940D080EF4E09545
:100D5000E7FB0C940708E92F0E942F0858F3BA17F5
:100D6000620773078407950720F079F4A6F50C94C1
:100D700051080EF4E0950B2EBA2FA02D0B01B901EE
:100D800090010C01CA01A0011124FF27591B99F001
:100D9000593F50F4503E68F11A16F040A22F232F0D
:100DA000342F4427585FF3CF469537952795A7955D
:100DB000F0405395C9F77EF41F16BA0B620B730B04
:100DC000840BBAF09150A1F0FF0FBB1F661F771F75
:100DD000881FC2F70EC0BA0F621F731F841F48F42A
:100DE000879577956795B795F7959E3F08F0B0CFB3
:100DF0009395880F08F09927EE0F9795879508959A
:100E00000E94E30708F481E008950E9419070C94FA
:100E10001E080E94170858F00E94100840F029F49C
:100E20005F3F29F00C94070851110C9452080C9460
:100E30000D080E942F0868F39923B1F3552391F30D
:100E4000951B550BBB27AA2762177307840738F039
:100E50009F5F5F4F220F331F441FAA1FA9F335D096
:100E60000E2E3AF0E0E832D091505040E695001C4A
:100E7000CAF72BD0FE2F29D0660F771F881FBB1F04
:100E8000261737074807AB07B0E809F0BB0B802DE2
:100E9000BF01FF2793585F4F3AF09E3F510578F00E
:100EA0000C9407080C9452085F3FE4F3983ED4F387
:100EB000869577956795B795F7959F5FC9F7880FE2
:100EC000911D9695879597F90895E1E0660F771F34
:100ED000881FBB1F621773078407BA0720F0621BC5
:100EE000730B840BBA0BEE1F88F7E09508950E94F0
:100EF000370888F09F5798F0B92F9927B751B0F06D
:100F0000E1F0660F771F881F991F1AF0BA95C9F78D
:100F100014C0B13091F00E945108B1E008950C94D2
:100F20005108672F782F8827B85F39F0B93FCCF385
:100F3000869577956795B395D9F73EF4909580950A
:100F4000709561957F4F8F4F9F4F0895E89409C02A
:100F500097FB3EF490958095709561957F4F8F4FEC
:100F60009F4F9923A9F0F92F96E9BB279395F69502
:100F7000879577956795B795F111F8CFFAF4BB0F80
:100F800011F460FF1BC06F5F7F4F8F4F9F4F16C0E4
:100F9000882311F096E911C0772321F09EE8872F6E
:100FA000762F05C0662371F096E8862F70E060E02A
:100FB0002AF09A95660F771F881FDAF7880F9695A3
:100FC000879597F90895990F0008550FAA0BE0E847
:100FD000FEEF16161706E807F907C0F012161306FB
:100FE000E407F50798F0621B730B840B950B39F43B
:100FF0000A2661F0232B242B252B21F408950A26A1
:1010000009F4A140A6958FEF811D811D089597F9E0
:101010009F6780E870E060E008959FEF80EC08959E
:1010200000240A94161617061806090608950024C7
:101030000A9412161306140605060895092E039441
:10104000000C11F4882352F0BB0F40F4BF2B11F4B5
:1010500060FF04C06F5F7F4F8F4F9F4F089557FD14
:101060009058440F551F59F05F3F71F04795880F16
:1010700097FB991F61F09F3F79F0879508951216AD
:1010800013061406551FF2CF4695F1DF08C0161659
:1010900017061806991FF1CF86957105610508940A
:1010A0000895E894BB2766277727CB0197F9089521
:1010B0000E94E30708F48FEF08950E9470080C94D3
:1010C0001E080E94100838F00E94170820F095238F
:1010D00011F00C9407080C940D0811240C9452087C
:1010E0000E942F0870F3959FC1F3950F50E0551F94
:1010F000629FF001729FBB27F00DB11D639FAA276D
:10110000F00DB11DAA1F649F6627B00DA11D661FBB
:10111000829F2227B00DA11D621F739FB00DA11DDC
:10112000621F839FA00D611D221F749F3327A00D96
:10113000611D231F849F600D211D822F762F6A2F32
:1011400011249F5750409AF0F1F088234AF0EE0F97
:10115000FF1FBB1F661F771F881F91505040A9F7C4
:101160009E3F510580F00C9407080C9452085F3F95
:10117000E4F3983ED4F3869577956795B795F79500
:10118000E7959F5FC1F7FE2B880F911D9695879578
:1011900097F908950E94E307880B990B0895F89436
:0211A000FFCF7F
:1011A200000000004702AC01D50194020602E401EE
:1011B200F8016E616E00696E66006F7666005465B6
:1011C2006D7065726174757265000D0A0048756D07
:0611D200696469747900F4
:00000001FF
